{
  "contractName": "Smarty",
  "abi": [
    {
      "constant": false,
      "inputs": [],
      "name": "unpause",
      "outputs": [],
      "payable": false,
      "stateMutability": "nonpayable",
      "type": "function"
    },
    {
      "constant": true,
      "inputs": [],
      "name": "paused",
      "outputs": [
        {
          "name": "",
          "type": "bool"
        }
      ],
      "payable": false,
      "stateMutability": "view",
      "type": "function"
    },
    {
      "constant": false,
      "inputs": [],
      "name": "renounceOwnership",
      "outputs": [],
      "payable": false,
      "stateMutability": "nonpayable",
      "type": "function"
    },
    {
      "constant": false,
      "inputs": [],
      "name": "pause",
      "outputs": [],
      "payable": false,
      "stateMutability": "nonpayable",
      "type": "function"
    },
    {
      "constant": true,
      "inputs": [],
      "name": "owner",
      "outputs": [
        {
          "name": "",
          "type": "address"
        }
      ],
      "payable": false,
      "stateMutability": "view",
      "type": "function"
    },
    {
      "constant": false,
      "inputs": [
        {
          "name": "_newOwner",
          "type": "address"
        }
      ],
      "name": "transferOwnership",
      "outputs": [],
      "payable": false,
      "stateMutability": "nonpayable",
      "type": "function"
    },
    {
      "inputs": [],
      "payable": false,
      "stateMutability": "nonpayable",
      "type": "constructor"
    },
    {
      "anonymous": false,
      "inputs": [
        {
          "indexed": false,
          "name": "user",
          "type": "string"
        },
        {
          "indexed": false,
          "name": "count",
          "type": "uint256"
        }
      ],
      "name": "userContractCount",
      "type": "event"
    },
    {
      "anonymous": false,
      "inputs": [
        {
          "indexed": false,
          "name": "user",
          "type": "string"
        },
        {
          "indexed": false,
          "name": "index",
          "type": "uint256"
        },
        {
          "indexed": false,
          "name": "smartContractIPFSHash",
          "type": "string"
        },
        {
          "indexed": false,
          "name": "smartContractAuditReportIPFSHash",
          "type": "string"
        },
        {
          "indexed": false,
          "name": "smartContractAuditReportTimestamp",
          "type": "uint256"
        }
      ],
      "name": "userContractDetails",
      "type": "event"
    },
    {
      "anonymous": false,
      "inputs": [],
      "name": "Pause",
      "type": "event"
    },
    {
      "anonymous": false,
      "inputs": [],
      "name": "Unpause",
      "type": "event"
    },
    {
      "anonymous": false,
      "inputs": [
        {
          "indexed": true,
          "name": "previousOwner",
          "type": "address"
        }
      ],
      "name": "OwnershipRenounced",
      "type": "event"
    },
    {
      "anonymous": false,
      "inputs": [
        {
          "indexed": true,
          "name": "previousOwner",
          "type": "address"
        },
        {
          "indexed": true,
          "name": "newOwner",
          "type": "address"
        }
      ],
      "name": "OwnershipTransferred",
      "type": "event"
    },
    {
      "constant": false,
      "inputs": [
        {
          "name": "_user",
          "type": "string"
        },
        {
          "name": "_smartContractIPFSHash",
          "type": "string"
        },
        {
          "name": "_smartContractAuditReportIPFSHash",
          "type": "string"
        }
      ],
      "name": "submitSmartContractDetails",
      "outputs": [],
      "payable": false,
      "stateMutability": "nonpayable",
      "type": "function"
    },
    {
      "constant": true,
      "inputs": [
        {
          "name": "_user",
          "type": "string"
        }
      ],
      "name": "retrieveSmartContractDetailsCount",
      "outputs": [
        {
          "name": "",
          "type": "uint256"
        }
      ],
      "payable": false,
      "stateMutability": "view",
      "type": "function"
    },
    {
      "constant": true,
      "inputs": [
        {
          "name": "_user",
          "type": "string"
        },
        {
          "name": "_index",
          "type": "uint256"
        }
      ],
      "name": "retrieveSmartContractDetailsAtIndex",
      "outputs": [
        {
          "name": "",
          "type": "string"
        },
        {
          "name": "",
          "type": "string"
        },
        {
          "name": "",
          "type": "uint256"
        }
      ],
      "payable": false,
      "stateMutability": "view",
      "type": "function"
    }
  ],
  "bytecode": "0x608060405260008060146101000a81548160ff02191690831515021790555034801561002a57600080fd5b50336000806101000a81548173ffffffffffffffffffffffffffffffffffffffff021916908373ffffffffffffffffffffffffffffffffffffffff16021790555033600160006101000a81548173ffffffffffffffffffffffffffffffffffffffff021916908373ffffffffffffffffffffffffffffffffffffffff16021790555061103e806100bb6000396000f300608060405260043610610099576000357c0100000000000000000000000000000000000000000000000000000000900463ffffffff1680633f4ba83a1461009e5780635c975abb146100b55780636fff860d146100e4578063715018a6146101335780638456cb591461014a5780638da5cb5b14610161578063aa13b532146101b8578063e02c401d14610223578063f2fde38b14610354575b600080fd5b3480156100aa57600080fd5b506100b3610397565b005b3480156100c157600080fd5b506100ca610455565b604051808215151515815260200191505060405180910390f35b3480156100f057600080fd5b5061011d600480360381019080803590602001908201803590602001919091929391929390505050610468565b6040518082815260200191505060405180910390f35b34801561013f57600080fd5b5061014861053d565b005b34801561015657600080fd5b5061015f61063f565b005b34801561016d57600080fd5b506101766106ff565b604051808273ffffffffffffffffffffffffffffffffffffffff1673ffffffffffffffffffffffffffffffffffffffff16815260200191505060405180910390f35b3480156101c457600080fd5b50610221600480360381019080803590602001908201803590602001919091929391929390803590602001908201803590602001919091929391929390803590602001908201803590602001919091929391929390505050610724565b005b34801561022f57600080fd5b506102666004803603810190808035906020019082018035906020019190919293919293908035906020019092919050505061098d565b604051808060200180602001848152602001838103835286818151815260200191508051906020019080838360005b838110156102b0578082015181840152602081019050610295565b50505050905090810190601f1680156102dd5780820380516001836020036101000a031916815260200191505b50838103825285818151815260200191508051906020019080838360005b838110156103165780820151818401526020810190506102fb565b50505050905090810190601f1680156103435780820380516001836020036101000a031916815260200191505b509550505050505060405180910390f35b34801561036057600080fd5b50610395600480360381019080803573ffffffffffffffffffffffffffffffffffffffff169060200190929190505050610e0c565b005b6000809054906101000a900473ffffffffffffffffffffffffffffffffffffffff1673ffffffffffffffffffffffffffffffffffffffff163373ffffffffffffffffffffffffffffffffffffffff161415156103f257600080fd5b600060149054906101000a900460ff16151561040d57600080fd5b60008060146101000a81548160ff0219169083151502179055507f7805862f689e2f13df9f062ff482ad3ad112aca9e0847911ed832e158c525b3360405160405180910390a1565b600060149054906101000a900460ff1681565b60008060149054906101000a900460ff1615151561048557600080fd5b7ffadc0115494c65fdbe82e67a551ffec8af4859bd4b214d7385039b56079d9c8c8383600286866040518083838082843782019150509250505090815260200160405180910390206000018054905060405180806020018381526020018281038252858582818152602001925080828437820191505094505050505060405180910390a16002838360405180838380828437820191505092505050908152602001604051809103902060000180549050905092915050565b6000809054906101000a900473ffffffffffffffffffffffffffffffffffffffff1673ffffffffffffffffffffffffffffffffffffffff163373ffffffffffffffffffffffffffffffffffffffff1614151561059857600080fd5b6000809054906101000a900473ffffffffffffffffffffffffffffffffffffffff1673ffffffffffffffffffffffffffffffffffffffff167ff8df31144d9c2f0f6b59d69b8b98abd5459d07f2742c4df920b25aae33c6482060405160405180910390a260008060006101000a81548173ffffffffffffffffffffffffffffffffffffffff021916908373ffffffffffffffffffffffffffffffffffffffff160217905550565b6000809054906101000a900473ffffffffffffffffffffffffffffffffffffffff1673ffffffffffffffffffffffffffffffffffffffff163373ffffffffffffffffffffffffffffffffffffffff1614151561069a57600080fd5b600060149054906101000a900460ff161515156106b657600080fd5b6001600060146101000a81548160ff0219169083151502179055507f6985a02210a168e66602d3235cb6db0e70f92b3ba4d376a33c0f3d9434bff62560405160405180910390a1565b6000809054906101000a900473ffffffffffffffffffffffffffffffffffffffff1681565b6000809054906101000a900473ffffffffffffffffffffffffffffffffffffffff1673ffffffffffffffffffffffffffffffffffffffff163373ffffffffffffffffffffffffffffffffffffffff1614151561077f57600080fd5b600060149054906101000a900460ff1615151561079b57600080fd5b7f3d749af7b1e957fe56f3fc7a9c7bf4eef927adc10ca427eef2414ac1f901e38b8686600289896040518083838082843782019150509250505090815260200160405180910390206000018054905087878787426040518080602001888152602001806020018060200185815260200184810384528c8c82818152602001925080828437820191505084810383528989828181526020019250808284378201915050848103825287878281815260200192508082843782019150509b50505050505050505050505060405180910390a16002868660405180838380828437820191505092505050908152602001604051809103902060000160606040519081016040528086868080601f016020809104026020016040519081016040528093929190818152602001838380828437820191505050505050815260200184848080601f01602080910402602001604051908101604052809392919081815260200183838082843782019150505050505081526020014281525090806001815401808255809150509060018203906000526020600020906003020160009091929091909150600082015181600001908051906020019061095a929190610f6d565b506020820151816001019080519060200190610977929190610f6d565b5060408201518160020155505050505050505050565b60608060008060149054906101000a900460ff161515156109ad57600080fd5b7f3d749af7b1e957fe56f3fc7a9c7bf4eef927adc10ca427eef2414ac1f901e38b86868660028a8a60405180838380828437820191505092505050908152602001604051809103902060000188815481101515610a0657fe5b906000526020600020906003020160000160028b8b60405180838380828437820191505092505050908152602001604051809103902060000189815481101515610a4c57fe5b906000526020600020906003020160010160028c8c6040518083838082843782019150509250505090815260200160405180910390206000018a815481101515610a9257fe5b9060005260206000209060030201600201546040518080602001868152602001806020018060200185815260200184810384528a8a828181526020019250808284378201915050848103835287818154600181600116156101000203166002900481526020019150805460018160011615610100020316600290048015610b5a5780601f10610b2f57610100808354040283529160200191610b5a565b820191906000526020600020905b815481529060010190602001808311610b3d57829003601f168201915b5050848103825286818154600181600116156101000203166002900481526020019150805460018160011615610100020316600290048015610bdd5780601f10610bb257610100808354040283529160200191610bdd565b820191906000526020600020905b815481529060010190602001808311610bc057829003601f168201915b5050995050505050505050505060405180910390a16002868660405180838380828437820191505092505050908152602001604051809103902060000184815481101515610c2757fe5b90600052602060002090600302016000016002878760405180838380828437820191505092505050908152602001604051809103902060000185815481101515610c6d57fe5b90600052602060002090600302016001016002888860405180838380828437820191505092505050908152602001604051809103902060000186815481101515610cb357fe5b906000526020600020906003020160020154828054600181600116156101000203166002900480601f016020809104026020016040519081016040528092919081815260200182805460018160011615610100020316600290048015610d5a5780601f10610d2f57610100808354040283529160200191610d5a565b820191906000526020600020905b815481529060010190602001808311610d3d57829003601f168201915b50505050509250818054600181600116156101000203166002900480601f016020809104026020016040519081016040528092919081815260200182805460018160011615610100020316600290048015610df65780601f10610dcb57610100808354040283529160200191610df6565b820191906000526020600020905b815481529060010190602001808311610dd957829003601f168201915b5050505050915092509250925093509350939050565b6000809054906101000a900473ffffffffffffffffffffffffffffffffffffffff1673ffffffffffffffffffffffffffffffffffffffff163373ffffffffffffffffffffffffffffffffffffffff16141515610e6757600080fd5b610e7081610e73565b50565b600073ffffffffffffffffffffffffffffffffffffffff168173ffffffffffffffffffffffffffffffffffffffff1614151515610eaf57600080fd5b8073ffffffffffffffffffffffffffffffffffffffff166000809054906101000a900473ffffffffffffffffffffffffffffffffffffffff1673ffffffffffffffffffffffffffffffffffffffff167f8be0079c531659141344cd1fd0a4f28419497f9722a3daafe3b4186f6b6457e060405160405180910390a3806000806101000a81548173ffffffffffffffffffffffffffffffffffffffff021916908373ffffffffffffffffffffffffffffffffffffffff16021790555050565b828054600181600116156101000203166002900490600052602060002090601f016020900481019282601f10610fae57805160ff1916838001178555610fdc565b82800160010185558215610fdc579182015b82811115610fdb578251825591602001919060010190610fc0565b5b509050610fe99190610fed565b5090565b61100f91905b8082111561100b576000816000905550600101610ff3565b5090565b905600a165627a7a7230582066642ae9d18334cfdf187377b3dca7ad8bcd1b2970c01ea10e235c3dc6bdacb90029",
  "source": "pragma solidity ^0.4.24;\n\nimport \"./Library/OpenZeppelin/Ownable.sol\";\nimport \"./Library/OpenZeppelin/Pausable.sol\";\n\n/** @title Smarty: smart contract security audit timestamping. */\ncontract Smarty is Ownable, Pausable  {\n\n  address owner;\n  struct s_contractInfo {\n    string smartContractIPFSHash;\n    string smartContractAuditReportIPFSHash;\n    uint256 smartContractAuditReportTimestamp;\n  }\n  struct s_userContracts {\n    s_contractInfo[] userContracts;\n  }\n  mapping (string => s_userContracts) userData;\n\n  event userContractCount (\n\t\t\t   string user,\n\t\t\t         uint256 count\n\t\t\t   );\n\n  event userContractDetails (\n\t\t\t     string user,\n\t\t\t     uint256 index,\n\t\t\t     string smartContractIPFSHash,\n\t\t\t     string smartContractAuditReportIPFSHash,\n\t\t\t           uint256 smartContractAuditReportTimestamp\n\t\t\t     );\n\n  constructor() public {\n    owner = msg.sender;\n  }\n\n  /** @dev Registers the submitted IPFS hashes of smart contract and audit report along with the timestamp for the specified user\n   * @param _user Username who submitted the contract.\n   * @param _smartContractIPFSHash IPFS hash of the smart contract.\n   * @param _smartContractAuditReportIPFSHash IPFS hash of the smart contract's audit report.\n   */\n  function submitSmartContractDetails (string _user, string _smartContractIPFSHash, string _smartContractAuditReportIPFSHash) external onlyOwner whenNotPaused {\n    emit userContractDetails(_user,userData[_user].userContracts.length,_smartContractIPFSHash,_smartContractAuditReportIPFSHash,now);\n    userData[_user].userContracts.push(s_contractInfo(_smartContractIPFSHash,_smartContractAuditReportIPFSHash,now));\n  }\n\n  /** @dev Retrieve the count of submitted IPFS hashes of smart contract details for the specified user\n   * @param _user Username for which the count of smart contract details need to be retrieved\n   * @return uint256 count of submitted smart contract details for the specified user\n   */\n  function retrieveSmartContractDetailsCount (string _user) view external whenNotPaused returns (uint256) {\n    emit userContractCount(_user,userData[_user].userContracts.length);\n    return(userData[_user].userContracts.length);\n  }\n  \n  /** @dev Retrieve smart contract details for the specified user at the specified index\n   * @param _user Username for which the smart contract details at the specified index need to be retrieved\n   * @param _user Index at which the smart contract details for the specified user need to be retrieved\n   * @return Submitted IPFS hashes and timestamp of smart contract details for the specified user at the specified index\n   */\n  function retrieveSmartContractDetailsAtIndex (string _user, uint256 _index) view external whenNotPaused returns (string, string, uint256) {\n    emit userContractDetails(_user,_index,userData[_user].userContracts[_index].smartContractIPFSHash,userData[_user].userContracts[_index].smartContractAuditReportIPFSHash,userData[_user].userContracts[_index].smartContractAuditReportTimestamp);\n    return(userData[_user].userContracts[_index].smartContractIPFSHash,userData[_user].userContracts[_index].smartContractAuditReportIPFSHash,userData[_user].userContracts[_index].smartContractAuditReportTimestamp);\n  }\n\n}\n",
  "sourcePath": "/Users/rajeevgopalakrishna/dev/ethereum/Smarty/src/ethereum/contracts/Smarty.sol",
  "compiler": {
    "name": "solc",
    "version": "0.4.24+commit.e67f0147.Emscripten.clang"
  },
  "schemaVersion": "2.0.1",
  "updatedAt": "2018-08-23T13:01:06.073Z"
}